:020000040000FA
:0400000007EF00F016
:10000800158209ED00F0F9EF01F006009EA20FEF4E
:1000180000F011EF00F082EF00F09E92112A1450C8
:100028001118D8A41AEF00F01CEF00F028EF00F028
:100038001428D8B422EF00F024EF00F028EF00F0E5
:10004800010E0B6E36EF00F01150D8A42EEF00F021
:1000580030EF00F036EF00F0000E0B6E36EF00F0D8
:1000680036EF00F013501118D8A43DEF00F03FEF21
:1000780000F04BEF00F01328D8B445EF00F047EF3D
:1000880000F04BEF00F0020E0C6E59EF00F011502B
:10009800D8A451EF00F053EF00F059EF00F0000E34
:1000A8000C6E59EF00F059EF00F012501118D8A457
:1000B80060EF00F062EF00F06EEF00F01228D8B4A5
:1000C80068EF00F06AEF00F06EEF00F0040E0D6EBE
:1000D8007CEF00F01150D8A474EF00F076EF00F038
:1000E8007CEF00F0000E0D6E7CEF00F07CEF00F06E
:1000F8000B500C100D10816E82EF00F09EAA87EF56
:1001080000F089EF00F070EF01F08098ABA48FEF5A
:1001180000F091EF00F096EF00F0AB94AB9EAB8E41
:100128006DEF01F0ABA29BEF00F09DEF00F0A2EFA6
:1001380000F0AB92AB98AB886DEF01F0AECF0EF04C
:100148001050D8A4AAEF00F0ACEF00F0E1EF00F0F7
:100158000EC010F00EC00FF0070E0F64B6EF00F0DF
:10016800B8EF00F068EF01F0FE0E0F24016E026A8E
:10017800FF0E0222000E046E030E036E72EC01F0F5
:1001880001500210D8A4CBEF00F0CDEF00F068EFDB
:1001980001F0D1EF00F0D1EF00F0ACA2D6EF00F003
:1001A800D8EF00F0D1EF00F0DAEF00F00E50FD0FBD
:1001B800AD6E68EF01F068EF01F01050076E086A45
:1001C800071E081E074A082A0F50096E0A6A0750B8
:1001D800092608500A2209040A10D8A4F6EF00F0EC
:1001E800F8EF00F0FCEF00F00EC014F068EF01F03B
:1001F8001050076E086A071E081E074A082A0F5083
:10020800096E0A6A0750092608500A22020E0918C0
:100218000A10D8A412EF01F014EF01F018EF01F062
:100228000EC013F068EF01F01050076E086A071E41
:10023800081E074A082A0F50096E0A6A075009263D
:1002480008500A22030E09180A10D8A42EEF01F04C
:1002580030EF01F034EF01F00EC012F068EF01F05A
:10026800070E0F643AEF01F03CEF01F068EF01F080
:10027800FE0E0F24016E026AFF0E0222000E046EAB
:10028800030E036E72EC01F001500210D8A44FEF78
:1002980001F051EF01F068EF01F055EF01F055EF73
:1002A80001F0ACA25AEF01F05CEF01F055EF01F05C
:1002B8000EC0ADFF68EF01F068EF01F068EF01F0E4
:1002C80068EF01F068EF01F010066DEF01F06DEFD7
:1002D80001F0808870EF01F015921100000E066E93
:1002E80002BE7BEF01F079EF01F083EF01F0016CC2
:1002F800021ED8B0022A010E066E83EF01F004BE7A
:100308008AEF01F088EF01F090EF01F0036C041E12
:10031800D8B0042A90EF01F003500410D8B497EF36
:1003280001F099EF01F0C9EF01F0010E056EA3EF9E
:1003380001F0D89003360436052AA3EF01F004AE85
:10034800A8EF01F0AAEF01F09DEF01F0AEEF01F088
:10035800AEEF01F00350015C04500258D8A0B7EF8B
:1003680001F0B9EF01F0BFEF01F00350015E045056
:10037800025ABFEF01F0D89004320332052EAEEFD7
:1003880001F0C9EF01F0C9EF01F00650D8B4CFEF82
:1003980001F0D1EF01F0D7EF01F0016C021ED8B0E7
:1003A800022AD7EF01F001C001F002C002F0DDEF30
:1003B80001F0120092988088939093929394000E83
:1003C800816E9E929D824D0ECB6ECA84948E949CB3
:1003D800400EAF6EAB8EAC8AAB889D989D8AF28C2E
:1003E800F28EF5EF01F007EF00F0146A136A126A53
:1003F800116A106A0F6A159015920001DEEF01F07C
:020000040020DA
:08000000FFFFFFFFFFFFFFFF00
:020000040030CA
:0E000000FF06081EFF8381FF0FC00FE00F40B8
:00000001FF
